:100000000C9446000C9458000C9454010C94730109
:100010000C9458000C9458000C9458000C94580000
:100020000C9458000C9458000C9458000C945800F0
:100030000C9458000C9458000C9458000C945800E0
:100040000C9427010C9458000C9458000C94580000
:100050000C9458000C9458000C9458000C945800C0
:100060000C9458000C9458000C9458000C945800B0
:100070000C9458000C9458000C9458000C945800A0
:100080000C9458000C9458000C94580011241FBE76
:10009000CFEFD0E1DEBFCDBF11E0A0E0B1E001C005
:1000A0001D92A531B107E1F70E945A000C94B002ED
:1000B0000C940000EF92FF920F931F93CF93DF9366
:1000C0000E9471020E94080180E090E060E070E010
:1000D0000E9492018FEF87BB80E884BB8FE785BBCE
:1000E000AF98C798789400E010E0C0E0D0E091E0CD
:1000F000E92EF12C83B388BB85BB80910401882352
:10010000C9F3F89410920401789485B3833019F000
:1001100085B3813059F4109201011092000104EC72
:100120001FEFC4ECDFEFEE24FF244FC085B3823015
:1001300049F085B3882331F021E0E216F10409F09B
:1001400044C003C081E0E82EF12C85B38230A1F4D5
:1001500080910001909101018B3F91056CF122E0AB
:100160008F3E9207DCF025E08D3D92072CF129E0CF
:10017000853C920754F512C085B3882331F58091F0
:100180000001909101018B3F910544F022E08F3EE8
:10019000920794F025E08D3D920754F401969093D8
:1001A00001018093000104EC1FEFC0E0D0E00DC01E
:1001B00029E0853C92074CF40196909301018093CD
:1001C000000100E010E0C4ECDFEFCE01B8010E94B6
:1001D00092010E949B0185B3833019F085B3823070
:1001E00031F4809102019091030101960CC085B316
:1001F000813021F085B3882309F07CCF8091020102
:10020000909103010197909303018093020172CFB3
:1002100087E083BF81E087BF109204011092100134
:1002200010920F0110920801109207011092120112
:100230001092110110920A011092090110921401FA
:100240001092130110920C0110920B0108951F924D
:100250000F920FB60F9211248F939F93F89482EC14
:1002600082BF80910D0190910E01909310018093B7
:100270000F018091050190910601909308018093F0
:10028000070110920E0110920D01109206011092BA
:10029000050181E08093040178949F918F910F90E4
:1002A0000FBE0F901F9018951F920F920FB60F92CE
:1002B00011248F939F93869B06C080910D0190918E
:1002C0000E01019705C080910D0190910E010196DC
:1002D00090930E0180930D019F918F910F900FBE0F
:1002E0000F901F9018951F920F920FB60F92112426
:1002F0008F939F93879B06C0809105019091060183
:10030000019605C080910501909106010197909397
:100310000601809305019F918F910F900FBE0F9062
:100320001F901895909314018093130170930C0102
:1003300060930B010895CF93DF9380911301909107
:100340001401892B09F03FC080910B0190910C01A1
:10035000892BC9F580910F0190911001880F991F89
:10036000880F991FCC27DD27C81BD90B8091070167
:1003700090910801880F991F880F991FEE27FF277A
:10038000E81BF90BCE014B96C79730F4CE0164E021
:1003900070E00E948902EB01CF014B96C79730F4C1
:1003A000CF0164E070E00E948902FB0154E0EE0F8F
:1003B000FF1F5A95E1F7CE0144E0880F991F4A9537
:1003C000E1F7BF0151C0C0911301D0911401809198
:1003D0000F0190911001880F991F880F991FC81B5A
:1003E000D90BE0910B01F0910C01809107019091E4
:1003F0000801880F991F880F991FE81BF90B80913E
:100400000F01909110012091110130911201821B76
:10041000930B029734F0CE0168E070E00E948902ED
:10042000EB01809107019091080120910901309121
:100430000A01821B930B029734F0CF0168E070E051
:100440000E948902FB0183E190E0E89FB001E99FEF
:10045000700DF89F700D11249C01C29FC001C39FB5
:10046000900DD29F900D11240E94490280910F019E
:1004700090911001909312018093110180910701D6
:100480009091080190930A0180930901DF91CF9127
:1004900008952BB32F7097FD02C0206404C020681C
:1004A000909581959F4F77FD02C0206204C0206126
:1004B000709561957F4F2BBB24E08030920714F03C
:1004C0008FEF93E0909387008093860084E0603004
:1004D000780714F06FEF73E07093850060938400E9
:1004E000089588E182B980EF8ABB83EF80938B0007
:1004F00089E080938A0089E381BB86E089BF8CE331
:1005000080936A0080E090E060E070E00E94490221
:10051000089597FB092E07260AD077FD04D00CD04A
:1005200006D000201AF4709561957F4F0895F6F774
:10053000909581959F4F0895AA1BBB1B51E107C061
:10054000AA1FBB1FA617B70710F0A61BB70B881F63
:10055000991F5A95A9F780959095BC01CD010895F2
:04056000F894FFCF3D
:00000001FF
