:100000000C9446000C9458000C941A010C9439017D
:100010000C9458000C9458000C9458000C94580000
:100020000C9458000C9458000C9458000C945800F0
:100030000C9458000C9458000C9458000C945800E0
:100040000C94ED000C9458000C9458000C9458003B
:100050000C9458000C9458000C9458000C945800C0
:100060000C9458000C9458000C9458000C945800B0
:100070000C9458000C9458000C9458000C945800A0
:100080000C9458000C9458000C94580011241FBE76
:10009000CFEFD0E1DEBFCDBF11E0A0E0B1E001C005
:1000A0001D92A331B107E1F70E945A000C94760229
:1000B0000C940000CF92DF92EF92FF920F931F9368
:1000C000CF93DF930E9437020E94CE0080E090E041
:1000D00060E070E00E9458018FEF87BB80E884BB2E
:1000E0008FE785BBAF98C798789400E010E0C0E038
:1000F000D0E091E0E92EF12C81E0C82ED12C83B321
:1001000088BB85BB809102018823C9F3F8941092C3
:100110000201789485B3833031F402E91FEFC2E91C
:10012000DFEFEE24FF2485B3813051F4D09201013A
:10013000C092000100EB1FEFC0E5D0E0EE24FF24E9
:1001400085B3823051F4109201011092000100E554
:1001500010E0C0EBDFEFEE24FF2485B38823B9F471
:10016000E114F10429F008ED1FEFC4ECDFEF0FC03C
:100170008091000190910101019729F000EB1FEFA0
:10018000C0E5D0E004C000E510E0C0EBDFEFCE0139
:10019000B8010E9458010E946101B1CF87E083BF7E
:1001A00081E087BF1092020110920E0110920D01A2
:1001B00010920601109205011092100110920F0189
:1001C0001092080110920701109212011092110171
:1001D00010920A011092090108951F920F920FB612
:1001E0000F9211248F939F93F89482EC82BF809199
:1001F0000B0190910C0190930E0180930D01809161
:1002000003019091040190930601809305011092DF
:100210000C0110920B01109204011092030181E075
:100220008093020178949F918F910F900FBE0F9051
:100230001F9018951F920F920FB60F9211248F9353
:100240009F93869B06C080910B0190910C010197B2
:1002500005C080910B0190910C01019690930C01C7
:1002600080930B019F918F910F900FBE0F901F9065
:1002700018951F920F920FB60F9211248F939F9390
:10028000879B06C08091030190910401019605C0EF
:100290008091030190910401019790930401809350
:1002A00003019F918F910F900FBE0F901F90189593
:1002B000909312018093110170930A0160930901D8
:1002C0000895CF93DF938091110190911201892BB2
:1002D00009F03FC08091090190910A01892BC9F56D
:1002E00080910D0190910E01880F991F880F991F21
:1002F000CC27DD27C81BD90B809105019091060101
:10030000880F991F880F991FEE27FF27E81BF90B0D
:10031000CE014B96C79730F4CE0164E070E00E94A6
:100320004F02EB01CF014B96C79730F4CF0164E049
:1003300070E00E944F02FB0154E0EE0FFF1F5A9540
:10034000E1F7CE0144E0880F991F4A95E1F7BF011C
:1003500051C0C0911101D091120180910D01909175
:100360000E01880F991F880F991FC81BD90BE091A8
:100370000901F0910A018091050190910601880F11
:10038000991F880F991FE81BF90B80910D0190911F
:100390000E0120910F0130911001821B930B0297E7
:1003A00034F0CE0168E070E00E944F02EB018091D2
:1003B0000501909106012091070130910801821BEF
:1003C000930B029734F0CF0168E070E00E944F0277
:1003D000FB0183E190E0E89FB001E99F700DF89F79
:1003E000700D11249C01C29FC001C39F900DD29F2C
:1003F000900D11240E940F0280910D0190910E0129
:100400009093100180930F01809105019091060156
:100410009093080180930701DF91CF9108952BB34A
:100420002F7097FD02C0206404C0206890958195CC
:100430009F4F77FD02C0206204C0206170956195D6
:100440007F4F2BBB24E08030920714F08FEF93E0B6
:10045000909387008093860084E06030780714F0E2
:100460006FEF73E07093850060938400089588E1D6
:1004700082B980EF8ABB83EF80938B0089E0809301
:100480008A0089E381BB86E089BF8CE380936A00A0
:1004900080E090E060E070E00E940F02089597FB1A
:1004A000092E07260AD077FD04D00CD006D00020F4
:1004B0001AF4709561957F4F0895F6F790958195A0
:1004C0009F4F0895AA1BBB1B51E107C0AA1FBB1F6A
:1004D000A617B70710F0A61BB70B881F991F5A95D0
:1004E000A9F780959095BC01CD010895F894FFCFB0
:00000001FF
